{
  "_format": "hh3-artifact-1",
  "contractName": "MetaNFTAuctionV2",
  "sourceName": "contracts/MetaNFTAuctionV2.sol",
  "abi": [
    {
      "inputs": [],
      "name": "InvalidInitialization",
      "type": "error"
    },
    {
      "inputs": [],
      "name": "NotInitializing",
      "type": "error"
    },
    {
      "anonymous": false,
      "inputs": [
        {
          "indexed": true,
          "internalType": "address",
          "name": "sender",
          "type": "address"
        },
        {
          "indexed": false,
          "internalType": "uint256",
          "name": "amount",
          "type": "uint256"
        }
      ],
      "name": "Bid",
      "type": "event"
    },
    {
      "anonymous": false,
      "inputs": [
        {
          "indexed": true,
          "internalType": "uint256",
          "name": "auctionId",
          "type": "uint256"
        }
      ],
      "name": "EndBid",
      "type": "event"
    },
    {
      "anonymous": false,
      "inputs": [
        {
          "indexed": false,
          "internalType": "uint64",
          "name": "version",
          "type": "uint64"
        }
      ],
      "name": "Initialized",
      "type": "event"
    },
    {
      "anonymous": false,
      "inputs": [
        {
          "indexed": false,
          "internalType": "uint256",
          "name": "startingBid",
          "type": "uint256"
        }
      ],
      "name": "StartBid",
      "type": "event"
    },
    {
      "inputs": [],
      "name": "auctionId",
      "outputs": [
        {
          "internalType": "uint256",
          "name": "",
          "type": "uint256"
        }
      ],
      "stateMutability": "view",
      "type": "function"
    },
    {
      "inputs": [
        {
          "internalType": "uint256",
          "name": "",
          "type": "uint256"
        }
      ],
      "name": "auctions",
      "outputs": [
        {
          "internalType": "contract IERC721",
          "name": "nft",
          "type": "address"
        },
        {
          "internalType": "uint256",
          "name": "nftId",
          "type": "uint256"
        },
        {
          "internalType": "address payable",
          "name": "seller",
          "type": "address"
        },
        {
          "internalType": "uint256",
          "name": "startingTime",
          "type": "uint256"
        },
        {
          "internalType": "address",
          "name": "highestBidder",
          "type": "address"
        },
        {
          "internalType": "uint256",
          "name": "startingPriceInDollar",
          "type": "uint256"
        },
        {
          "internalType": "uint256",
          "name": "duration",
          "type": "uint256"
        },
        {
          "internalType": "contract IERC20",
          "name": "paymentToken",
          "type": "address"
        },
        {
          "internalType": "uint256",
          "name": "highestBid",
          "type": "uint256"
        },
        {
          "internalType": "uint256",
          "name": "highestBidInDollar",
          "type": "uint256"
        },
        {
          "internalType": "address",
          "name": "highestBidToken",
          "type": "address"
        }
      ],
      "stateMutability": "view",
      "type": "function"
    },
    {
      "inputs": [
        {
          "internalType": "uint256",
          "name": "auctionId_",
          "type": "uint256"
        },
        {
          "internalType": "uint256",
          "name": "amount",
          "type": "uint256"
        }
      ],
      "name": "bid",
      "outputs": [],
      "stateMutability": "payable",
      "type": "function"
    },
    {
      "inputs": [
        {
          "internalType": "uint256",
          "name": "auctionId_",
          "type": "uint256"
        }
      ],
      "name": "end",
      "outputs": [],
      "stateMutability": "nonpayable",
      "type": "function"
    },
    {
      "inputs": [
        {
          "internalType": "address",
          "name": "token",
          "type": "address"
        }
      ],
      "name": "getPriceInDollar",
      "outputs": [
        {
          "internalType": "uint256",
          "name": "",
          "type": "uint256"
        }
      ],
      "stateMutability": "view",
      "type": "function"
    },
    {
      "inputs": [],
      "name": "getVersion",
      "outputs": [
        {
          "internalType": "string",
          "name": "",
          "type": "string"
        }
      ],
      "stateMutability": "pure",
      "type": "function"
    },
    {
      "inputs": [
        {
          "internalType": "address",
          "name": "admin_",
          "type": "address"
        }
      ],
      "name": "initialize",
      "outputs": [],
      "stateMutability": "nonpayable",
      "type": "function"
    },
    {
      "inputs": [
        {
          "internalType": "uint256",
          "name": "auctionId_",
          "type": "uint256"
        }
      ],
      "name": "isEnded",
      "outputs": [
        {
          "internalType": "bool",
          "name": "",
          "type": "bool"
        }
      ],
      "stateMutability": "view",
      "type": "function"
    },
    {
      "inputs": [],
      "name": "newFeature",
      "outputs": [
        {
          "internalType": "string",
          "name": "",
          "type": "string"
        }
      ],
      "stateMutability": "pure",
      "type": "function"
    },
    {
      "inputs": [
        {
          "internalType": "address",
          "name": "token",
          "type": "address"
        },
        {
          "internalType": "address",
          "name": "oracle",
          "type": "address"
        }
      ],
      "name": "setTokenOracle",
      "outputs": [],
      "stateMutability": "nonpayable",
      "type": "function"
    },
    {
      "inputs": [
        {
          "internalType": "uint256",
          "name": "nftId",
          "type": "uint256"
        },
        {
          "internalType": "address",
          "name": "nft",
          "type": "address"
        },
        {
          "internalType": "uint256",
          "name": "startingPriceInDollar",
          "type": "uint256"
        },
        {
          "internalType": "uint256",
          "name": "duration",
          "type": "uint256"
        },
        {
          "internalType": "address",
          "name": "paymentToken",
          "type": "address"
        }
      ],
      "name": "start",
      "outputs": [],
      "stateMutability": "nonpayable",
      "type": "function"
    },
    {
      "inputs": [
        {
          "internalType": "address",
          "name": "",
          "type": "address"
        }
      ],
      "name": "tokenToOracle",
      "outputs": [
        {
          "internalType": "address",
          "name": "",
          "type": "address"
        }
      ],
      "stateMutability": "view",
      "type": "function"
    }
  ],
  "bytecode": "0x608060405234801561000f575f5ffd5b5061001e61002360201b60201c565b61019e565b5f61003261012160201b60201c565b9050805f0160089054906101000a900460ff161561007c576040517ff92ee8a900000000000000000000000000000000000000000000000000000000815260040160405180910390fd5b67ffffffffffffffff8016815f015f9054906101000a900467ffffffffffffffff1667ffffffffffffffff161461011e5767ffffffffffffffff815f015f6101000a81548167ffffffffffffffff021916908367ffffffffffffffff1602179055507fc7f505b2f371ae2175ee4913f4499e1f2633a7b5936321eed1cdaeb6115181d267ffffffffffffffff6040516101159190610185565b60405180910390a15b50565b5f5f61013161013a60201b60201c565b90508091505090565b5f7ff0c57e16840df040f15088dc2f81fe391c3923bec73e23a9662efc9c229c6a005f1b905090565b5f67ffffffffffffffff82169050919050565b61017f81610163565b82525050565b5f6020820190506101985f830184610176565b92915050565b61281b806101ab5f395ff3fe6080604052600436106100a6575f3560e01c8063571a26a011610063578063571a26a0146101b4578063598647f8146101fa578063764467cc146102165780639820c7331461023e578063b66f7a8b1461027a578063c4d66de8146102b6576100a6565b80630ad24528146100aa5780630d8e6e2c146100d257806310782f8f146100fc578063274f0207146101265780633ca75c201461015057806341462bb014610178575b5f5ffd5b3480156100b5575f5ffd5b506100d060048036038101906100cb919061185a565b6102de565b005b3480156100dd575f5ffd5b506100e6610649565b6040516100f391906118f5565b60405180910390f35b348015610107575f5ffd5b50610110610686565b60405161011d9190611924565b60405180910390f35b348015610131575f5ffd5b5061013a61068c565b60405161014791906118f5565b60405180910390f35b34801561015b575f5ffd5b5061017660048036038101906101719190611997565b6106c9565b005b348015610183575f5ffd5b5061019e60048036038101906101999190611a0e565b610a54565b6040516101ab9190611924565b60405180910390f35b3480156101bf575f5ffd5b506101da60048036038101906101d5919061185a565b610ba6565b6040516101f19b9a99989796959493929190611ae3565b60405180910390f35b610214600480360381019061020f9190611b8c565b610c97565b005b348015610221575f5ffd5b5061023c60048036038101906102379190611bca565b61139d565b005b348015610249575f5ffd5b50610264600480360381019061025f9190611a0e565b611518565b6040516102719190611c08565b60405180910390f35b348015610285575f5ffd5b506102a0600480360381019061029b919061185a565b611548565b6040516102ad9190611c3b565b60405180910390f35b3480156102c1575f5ffd5b506102dc60048036038101906102d79190611a0e565b61158b565b005b5f60025f8381526020019081526020015f2090506102fb82611548565b61033a576040517f08c379a000000000000000000000000000000000000000000000000000000000815260040161033190611c9e565b60405180910390fd5b5f73ffffffffffffffffffffffffffffffffffffffff16816004015f9054906101000a900473ffffffffffffffffffffffffffffffffffffffff1673ffffffffffffffffffffffffffffffffffffffff16036103cb576040517f08c379a00000000000000000000000000000000000000000000000000000000081526004016103c290611d06565b60405180910390fd5b805f015f9054906101000a900473ffffffffffffffffffffffffffffffffffffffff1673ffffffffffffffffffffffffffffffffffffffff166323b872dd30836004015f9054906101000a900473ffffffffffffffffffffffffffffffffffffffff1684600101546040518463ffffffff1660e01b815260040161045193929190611d24565b5f604051808303815f87803b158015610468575f5ffd5b505af115801561047a573d5f5f3e3d5ffd5b505050505f81600801541115610618575f73ffffffffffffffffffffffffffffffffffffffff1681600a015f9054906101000a900473ffffffffffffffffffffffffffffffffffffffff1673ffffffffffffffffffffffffffffffffffffffff160361055057806002015f9054906101000a900473ffffffffffffffffffffffffffffffffffffffff1673ffffffffffffffffffffffffffffffffffffffff166108fc826008015490811502906040515f60405180830381858888f1935050505015801561054a573d5f5f3e3d5ffd5b50610617565b80600a015f9054906101000a900473ffffffffffffffffffffffffffffffffffffffff1673ffffffffffffffffffffffffffffffffffffffff1663a9059cbb826002015f9054906101000a900473ffffffffffffffffffffffffffffffffffffffff1683600801546040518363ffffffff1660e01b81526004016105d5929190611d79565b6020604051808303815f875af11580156105f1573d5f5f3e3d5ffd5b505050506040513d601f19601f820116820180604052508101906106159190611dca565b505b5b817f49f8c3bdcd0eb514e0cc6e15c20ea38221feede47b929c3ea387bf7ec5ed09cf60405160405180910390a25050565b60606040518060400160405280601081526020017f4d6574614e465441756374696f6e563200000000000000000000000000000000815250905090565b60035481565b60606040518060400160405280601b81526020017f746869732069732061206e6577206665617475726520696e2056320000000000815250905090565b5f73ffffffffffffffffffffffffffffffffffffffff168473ffffffffffffffffffffffffffffffffffffffff1603610737576040517f08c379a000000000000000000000000000000000000000000000000000000000815260040161072e90611e3f565b60405180910390fd5b601e82101561077b576040517f08c379a000000000000000000000000000000000000000000000000000000000815260040161077290611ea7565b60405180910390fd5b5f73ffffffffffffffffffffffffffffffffffffffff168173ffffffffffffffffffffffffffffffffffffffff16036107e9576040517f08c379a00000000000000000000000000000000000000000000000000000000081526004016107e090611f0f565b60405180910390fd5b5f3390505f60025f60035481526020019081526020015f20905085815f015f6101000a81548173ffffffffffffffffffffffffffffffffffffffff021916908373ffffffffffffffffffffffffffffffffffffffff16021790555086816001018190555081816002015f6101000a81548173ffffffffffffffffffffffffffffffffffffffff021916908373ffffffffffffffffffffffffffffffffffffffff1602179055504281600301819055506305f5e100856108a89190611f5a565b816005018190555083816006018190555082816007015f6101000a81548173ffffffffffffffffffffffffffffffffffffffff021916908373ffffffffffffffffffffffffffffffffffffffff1602179055505f81600801819055505f816004015f6101000a81548173ffffffffffffffffffffffffffffffffffffffff021916908373ffffffffffffffffffffffffffffffffffffffff1602179055505f81600901819055505f81600a015f6101000a81548173ffffffffffffffffffffffffffffffffffffffff021916908373ffffffffffffffffffffffffffffffffffffffff1602179055508573ffffffffffffffffffffffffffffffffffffffff166323b872dd83308a6040518463ffffffff1660e01b81526004016109ce93929190611d24565b5f604051808303815f87803b1580156109e5575f5ffd5b505af11580156109f7573d5f5f3e3d5ffd5b5050505060035f815480929190610a0d90611f9b565b91905055507fb5949404365a99702891e7d343a17849cef9b8b7bdb7773922e333f46de188a7600354604051610a439190611924565b60405180910390a150505050505050565b5f5f5f60015f8573ffffffffffffffffffffffffffffffffffffffff1673ffffffffffffffffffffffffffffffffffffffff1681526020019081526020015f205f9054906101000a900473ffffffffffffffffffffffffffffffffffffffff1690505f73ffffffffffffffffffffffffffffffffffffffff168173ffffffffffffffffffffffffffffffffffffffff1603610b24576040517f08c379a0000000000000000000000000000000000000000000000000000000008152600401610b1b9061202c565b60405180910390fd5b8091505f8273ffffffffffffffffffffffffffffffffffffffff1663feaf968c6040518163ffffffff1660e01b815260040160a060405180830381865afa158015610b71573d5f5f3e3d5ffd5b505050506040513d601f19601f82011682018060405250810190610b9591906120d0565b505050915050809350505050919050565b6002602052805f5260405f205f91509050805f015f9054906101000a900473ffffffffffffffffffffffffffffffffffffffff1690806001015490806002015f9054906101000a900473ffffffffffffffffffffffffffffffffffffffff1690806003015490806004015f9054906101000a900473ffffffffffffffffffffffffffffffffffffffff1690806005015490806006015490806007015f9054906101000a900473ffffffffffffffffffffffffffffffffffffffff169080600801549080600901549080600a015f9054906101000a900473ffffffffffffffffffffffffffffffffffffffff1690508b565b5f60025f8481526020019081526020015f2090505f816003015411610cf1576040517f08c379a0000000000000000000000000000000000000000000000000000000008152600401610ce890612191565b60405180910390fd5b610cfa83611548565b15610d3a576040517f08c379a0000000000000000000000000000000000000000000000000000000008152600401610d31906121f9565b60405180910390fd5b5f5f5f341190508015610da957348414610d89576040517f08c379a0000000000000000000000000000000000000000000000000000000008152600401610d8090612261565b60405180910390fd5b5f610d935f610a54565b9050610da1346012836117b0565b925050610f61565b5f8411610deb576040517f08c379a0000000000000000000000000000000000000000000000000000000008152600401610de2906122c9565b60405180910390fd5b5f610e18846007015f9054906101000a900473ffffffffffffffffffffffffffffffffffffffff16610a54565b90505f846007015f9054906101000a900473ffffffffffffffffffffffffffffffffffffffff1673ffffffffffffffffffffffffffffffffffffffff1663313ce5676040518163ffffffff1660e01b8152600401602060405180830381865afa158015610e87573d5f5f3e3d5ffd5b505050506040513d601f19601f82011682018060405250810190610eab919061231d565b9050610ebb868260ff16846117b0565b9350846007015f9054906101000a900473ffffffffffffffffffffffffffffffffffffffff1673ffffffffffffffffffffffffffffffffffffffff166323b872dd3330896040518463ffffffff1660e01b8152600401610f1d93929190611d24565b6020604051808303815f875af1158015610f39573d5f5f3e3d5ffd5b505050506040513d601f19601f82011682018060405250810190610f5d9190611dca565b5050505b81836005015410610fa7576040517f08c379a0000000000000000000000000000000000000000000000000000000008152600401610f9e90612392565b60405180910390fd5b81836009015410610fed576040517f08c379a0000000000000000000000000000000000000000000000000000000008152600401610fe4906123fa565b60405180910390fd5b5f73ffffffffffffffffffffffffffffffffffffffff16836004015f9054906101000a900473ffffffffffffffffffffffffffffffffffffffff1673ffffffffffffffffffffffffffffffffffffffff161415801561109b57503373ffffffffffffffffffffffffffffffffffffffff16836004015f9054906101000a900473ffffffffffffffffffffffffffffffffffffffff1673ffffffffffffffffffffffffffffffffffffffff1614155b15611238575f836008015490505f811115611236575f73ffffffffffffffffffffffffffffffffffffffff1684600a015f9054906101000a900473ffffffffffffffffffffffffffffffffffffffff1673ffffffffffffffffffffffffffffffffffffffff160361117257836004015f9054906101000a900473ffffffffffffffffffffffffffffffffffffffff1673ffffffffffffffffffffffffffffffffffffffff166108fc8290811502906040515f60405180830381858888f1935050505015801561116c573d5f5f3e3d5ffd5b50611235565b836007015f9054906101000a900473ffffffffffffffffffffffffffffffffffffffff1673ffffffffffffffffffffffffffffffffffffffff1663a9059cbb856004015f9054906101000a900473ffffffffffffffffffffffffffffffffffffffff16836040518363ffffffff1660e01b81526004016111f3929190612418565b6020604051808303815f875af115801561120f573d5f5f3e3d5ffd5b505050506040513d601f19601f820116820180604052508101906112339190611dca565b505b5b505b801561128e573483600801819055505f83600a015f6101000a81548173ffffffffffffffffffffffffffffffffffffffff021916908373ffffffffffffffffffffffffffffffffffffffff1602179055506112fd565b838360080181905550826007015f9054906101000a900473ffffffffffffffffffffffffffffffffffffffff1683600a015f6101000a81548173ffffffffffffffffffffffffffffffffffffffff021916908373ffffffffffffffffffffffffffffffffffffffff1602179055505b33836004015f6101000a81548173ffffffffffffffffffffffffffffffffffffffff021916908373ffffffffffffffffffffffffffffffffffffffff1602179055508183600901819055503373ffffffffffffffffffffffffffffffffffffffff167fe684a55f31b79eca403df938249029212a5925ec6be8012e099b45bc1019e5d28360405161138e9190611924565b60405180910390a25050505050565b5f5f9054906101000a900473ffffffffffffffffffffffffffffffffffffffff1673ffffffffffffffffffffffffffffffffffffffff163373ffffffffffffffffffffffffffffffffffffffff161461142b576040517f08c379a000000000000000000000000000000000000000000000000000000000815260040161142290612489565b60405180910390fd5b5f73ffffffffffffffffffffffffffffffffffffffff168173ffffffffffffffffffffffffffffffffffffffff1603611499576040517f08c379a0000000000000000000000000000000000000000000000000000000008152600401611490906124f1565b60405180910390fd5b8060015f8473ffffffffffffffffffffffffffffffffffffffff1673ffffffffffffffffffffffffffffffffffffffff1681526020019081526020015f205f6101000a81548173ffffffffffffffffffffffffffffffffffffffff021916908373ffffffffffffffffffffffffffffffffffffffff1602179055505050565b6001602052805f5260405f205f915054906101000a900473ffffffffffffffffffffffffffffffffffffffff1681565b5f5f60025f8481526020019081526020015f2090505f816003015411801561158357508060060154816003015461157f919061250f565b4210155b915050919050565b5f6115946117e7565b90505f815f0160089054906101000a900460ff161590505f825f015f9054906101000a900467ffffffffffffffff1690505f5f8267ffffffffffffffff161480156115dc5750825b90505f60018367ffffffffffffffff1614801561160f57505f3073ffffffffffffffffffffffffffffffffffffffff163b145b90508115801561161d575080155b15611654576040517ff92ee8a900000000000000000000000000000000000000000000000000000000815260040160405180910390fd5b6001855f015f6101000a81548167ffffffffffffffff021916908367ffffffffffffffff16021790555083156116a1576001855f0160086101000a81548160ff0219169083151502179055505b5f73ffffffffffffffffffffffffffffffffffffffff168673ffffffffffffffffffffffffffffffffffffffff160361170f576040517f08c379a00000000000000000000000000000000000000000000000000000000081526004016117069061258c565b60405180910390fd5b855f5f6101000a81548173ffffffffffffffffffffffffffffffffffffffff021916908373ffffffffffffffffffffffffffffffffffffffff16021790555083156117a8575f855f0160086101000a81548160ff0219169083151502179055507fc7f505b2f371ae2175ee4913f4499e1f2633a7b5936321eed1cdaeb6115181d2600160405161179f91906125f6565b60405180910390a15b505050505050565b5f5f83600a6117bf919061273e565b90505f8184876117cf9190611f5a565b6117d991906127b5565b905080925050509392505050565b5f5f6117f16117fa565b90508091505090565b5f7ff0c57e16840df040f15088dc2f81fe391c3923bec73e23a9662efc9c229c6a005f1b905090565b5f5ffd5b5f819050919050565b61183981611827565b8114611843575f5ffd5b50565b5f8135905061185481611830565b92915050565b5f6020828403121561186f5761186e611823565b5b5f61187c84828501611846565b91505092915050565b5f81519050919050565b5f82825260208201905092915050565b8281835e5f83830152505050565b5f601f19601f8301169050919050565b5f6118c782611885565b6118d1818561188f565b93506118e181856020860161189f565b6118ea816118ad565b840191505092915050565b5f6020820190508181035f83015261190d81846118bd565b905092915050565b61191e81611827565b82525050565b5f6020820190506119375f830184611915565b92915050565b5f73ffffffffffffffffffffffffffffffffffffffff82169050919050565b5f6119668261193d565b9050919050565b6119768161195c565b8114611980575f5ffd5b50565b5f813590506119918161196d565b92915050565b5f5f5f5f5f60a086880312156119b0576119af611823565b5b5f6119bd88828901611846565b95505060206119ce88828901611983565b94505060406119df88828901611846565b93505060606119f088828901611846565b9250506080611a0188828901611983565b9150509295509295909350565b5f60208284031215611a2357611a22611823565b5b5f611a3084828501611983565b91505092915050565b5f819050919050565b5f611a5c611a57611a528461193d565b611a39565b61193d565b9050919050565b5f611a6d82611a42565b9050919050565b5f611a7e82611a63565b9050919050565b611a8e81611a74565b82525050565b5f611a9e8261193d565b9050919050565b611aae81611a94565b82525050565b611abd8161195c565b82525050565b5f611acd82611a63565b9050919050565b611add81611ac3565b82525050565b5f61016082019050611af75f83018e611a85565b611b04602083018d611915565b611b11604083018c611aa5565b611b1e606083018b611915565b611b2b608083018a611ab4565b611b3860a0830189611915565b611b4560c0830188611915565b611b5260e0830187611ad4565b611b60610100830186611915565b611b6e610120830185611915565b611b7c610140830184611ab4565b9c9b505050505050505050505050565b5f5f60408385031215611ba257611ba1611823565b5b5f611baf85828601611846565b9250506020611bc085828601611846565b9150509250929050565b5f5f60408385031215611be057611bdf611823565b5b5f611bed85828601611983565b9250506020611bfe85828601611983565b9150509250929050565b5f602082019050611c1b5f830184611ab4565b92915050565b5f8115159050919050565b611c3581611c21565b82525050565b5f602082019050611c4e5f830184611c2c565b92915050565b7f6e6f7420656e64656400000000000000000000000000000000000000000000005f82015250565b5f611c8860098361188f565b9150611c9382611c54565b602082019050919050565b5f6020820190508181035f830152611cb581611c7c565b9050919050565b7f6e6f2062696473000000000000000000000000000000000000000000000000005f82015250565b5f611cf060078361188f565b9150611cfb82611cbc565b602082019050919050565b5f6020820190508181035f830152611d1d81611ce4565b9050919050565b5f606082019050611d375f830186611ab4565b611d446020830185611ab4565b611d516040830184611915565b949350505050565b5f611d6382611a63565b9050919050565b611d7381611d59565b82525050565b5f604082019050611d8c5f830185611d6a565b611d996020830184611915565b9392505050565b611da981611c21565b8114611db3575f5ffd5b50565b5f81519050611dc481611da0565b92915050565b5f60208284031215611ddf57611dde611823565b5b5f611dec84828501611db6565b91505092915050565b7f696e76616c6964206e66740000000000000000000000000000000000000000005f82015250565b5f611e29600b8361188f565b9150611e3482611df5565b602082019050919050565b5f6020820190508181035f830152611e5681611e1d565b9050919050565b7f696e76616c6964206475726174696f6e000000000000000000000000000000005f82015250565b5f611e9160108361188f565b9150611e9c82611e5d565b602082019050919050565b5f6020820190508181035f830152611ebe81611e85565b9050919050565b7f696e76616c6964207061796d656e7420746f6b656e00000000000000000000005f82015250565b5f611ef960158361188f565b9150611f0482611ec5565b602082019050919050565b5f6020820190508181035f830152611f2681611eed565b9050919050565b7f4e487b71000000000000000000000000000000000000000000000000000000005f52601160045260245ffd5b5f611f6482611827565b9150611f6f83611827565b9250828202611f7d81611827565b91508282048414831517611f9457611f93611f2d565b5b5092915050565b5f611fa582611827565b91507fffffffffffffffffffffffffffffffffffffffffffffffffffffffffffffffff8203611fd757611fd6611f2d565b5b600182019050919050565b7f6f7261636c65206e6f74207365740000000000000000000000000000000000005f82015250565b5f612016600e8361188f565b915061202182611fe2565b602082019050919050565b5f6020820190508181035f8301526120438161200a565b9050919050565b5f69ffffffffffffffffffff82169050919050565b6120688161204a565b8114612072575f5ffd5b50565b5f815190506120838161205f565b92915050565b5f819050919050565b61209b81612089565b81146120a5575f5ffd5b50565b5f815190506120b681612092565b92915050565b5f815190506120ca81611830565b92915050565b5f5f5f5f5f60a086880312156120e9576120e8611823565b5b5f6120f688828901612075565b9550506020612107888289016120a8565b9450506040612118888289016120bc565b9350506060612129888289016120bc565b925050608061213a88828901612075565b9150509295509295909350565b7f6e6f7420737461727465640000000000000000000000000000000000000000005f82015250565b5f61217b600b8361188f565b915061218682612147565b602082019050919050565b5f6020820190508181035f8301526121a88161216f565b9050919050565b7f656e6465640000000000000000000000000000000000000000000000000000005f82015250565b5f6121e360058361188f565b91506121ee826121af565b602082019050919050565b5f6020820190508181035f830152612210816121d7565b9050919050565b7f616d6f756e74206d69736d6174636800000000000000000000000000000000005f82015250565b5f61224b600f8361188f565b915061225682612217565b602082019050919050565b5f6020820190508181035f8301526122788161223f565b9050919050565b7f696e76616c696420616d6f756e740000000000000000000000000000000000005f82015250565b5f6122b3600e8361188f565b91506122be8261227f565b602082019050919050565b5f6020820190508181035f8301526122e0816122a7565b9050919050565b5f60ff82169050919050565b6122fc816122e7565b8114612306575f5ffd5b50565b5f81519050612317816122f3565b92915050565b5f6020828403121561233257612331611823565b5b5f61233f84828501612309565b91505092915050565b7f696e76616c6964207374617274696e67507269636500000000000000000000005f82015250565b5f61237c60158361188f565b915061238782612348565b602082019050919050565b5f6020820190508181035f8301526123a981612370565b9050919050565b7f696e76616c6964206869676865737442696400000000000000000000000000005f82015250565b5f6123e460128361188f565b91506123ef826123b0565b602082019050919050565b5f6020820190508181035f830152612411816123d8565b9050919050565b5f60408201905061242b5f830185611ab4565b6124386020830184611915565b9392505050565b7f6e6f742061646d696e00000000000000000000000000000000000000000000005f82015250565b5f61247360098361188f565b915061247e8261243f565b602082019050919050565b5f6020820190508181035f8301526124a081612467565b9050919050565b7f696e76616c6964206f7261636c650000000000000000000000000000000000005f82015250565b5f6124db600e8361188f565b91506124e6826124a7565b602082019050919050565b5f6020820190508181035f830152612508816124cf565b9050919050565b5f61251982611827565b915061252483611827565b925082820190508082111561253c5761253b611f2d565b5b92915050565b7f696e76616c69642061646d696e000000000000000000000000000000000000005f82015250565b5f612576600d8361188f565b915061258182612542565b602082019050919050565b5f6020820190508181035f8301526125a38161256a565b9050919050565b5f819050919050565b5f67ffffffffffffffff82169050919050565b5f6125e06125db6125d6846125aa565b611a39565b6125b3565b9050919050565b6125f0816125c6565b82525050565b5f6020820190506126095f8301846125e7565b92915050565b5f8160011c9050919050565b5f5f8291508390505b6001851115612664578086048111156126405761263f611f2d565b5b600185161561264f5780820291505b808102905061265d8561260f565b9450612624565b94509492505050565b5f8261267c5760019050612737565b81612689575f9050612737565b816001811461269f57600281146126a9576126d8565b6001915050612737565b60ff8411156126bb576126ba611f2d565b5b8360020a9150848211156126d2576126d1611f2d565b5b50612737565b5060208310610133831016604e8410600b841016171561270d5782820a90508381111561270857612707611f2d565b5b612737565b61271a848484600161261b565b9250905081840481111561273157612730611f2d565b5b81810290505b9392505050565b5f61274882611827565b915061275383611827565b92506127807fffffffffffffffffffffffffffffffffffffffffffffffffffffffffffffffff848461266d565b905092915050565b7f4e487b71000000000000000000000000000000000000000000000000000000005f52601260045260245ffd5b5f6127bf82611827565b91506127ca83611827565b9250826127da576127d9612788565b5b82820490509291505056fea26469706673582212204418730954134b38476a955748c23d580cde09bb6dff5bedd16b93ad9fcbdf5264736f6c634300081c0033",
  "linkReferences": {},
  "deployedLinkReferences": {},
  "immutableReferences": {},
  "inputSourceName": "project/contracts/MetaNFTAuctionV2.sol",
  "buildInfoId": "solc-0_8_28-10d6c566c3654ecec8b5a184f58c673011ae3403"
}