{
  "_format": "hh3-artifact-1",
  "contractName": "MetaNFT",
  "sourceName": "contracts/MetaNFT.sol",
  "abi": [
    {
      "inputs": [
        {
          "internalType": "string",
          "name": "name_",
          "type": "string"
        },
        {
          "internalType": "string",
          "name": "symbol_",
          "type": "string"
        }
      ],
      "stateMutability": "nonpayable",
      "type": "constructor"
    },
    {
      "inputs": [
        {
          "internalType": "address",
          "name": "sender",
          "type": "address"
        },
        {
          "internalType": "uint256",
          "name": "tokenId",
          "type": "uint256"
        },
        {
          "internalType": "address",
          "name": "owner",
          "type": "address"
        }
      ],
      "name": "ERC721IncorrectOwner",
      "type": "error"
    },
    {
      "inputs": [
        {
          "internalType": "address",
          "name": "operator",
          "type": "address"
        },
        {
          "internalType": "uint256",
          "name": "tokenId",
          "type": "uint256"
        }
      ],
      "name": "ERC721InsufficientApproval",
      "type": "error"
    },
    {
      "inputs": [
        {
          "internalType": "address",
          "name": "approver",
          "type": "address"
        }
      ],
      "name": "ERC721InvalidApprover",
      "type": "error"
    },
    {
      "inputs": [
        {
          "internalType": "address",
          "name": "operator",
          "type": "address"
        }
      ],
      "name": "ERC721InvalidOperator",
      "type": "error"
    },
    {
      "inputs": [
        {
          "internalType": "address",
          "name": "owner",
          "type": "address"
        }
      ],
      "name": "ERC721InvalidOwner",
      "type": "error"
    },
    {
      "inputs": [
        {
          "internalType": "address",
          "name": "receiver",
          "type": "address"
        }
      ],
      "name": "ERC721InvalidReceiver",
      "type": "error"
    },
    {
      "inputs": [
        {
          "internalType": "address",
          "name": "sender",
          "type": "address"
        }
      ],
      "name": "ERC721InvalidSender",
      "type": "error"
    },
    {
      "inputs": [
        {
          "internalType": "uint256",
          "name": "tokenId",
          "type": "uint256"
        }
      ],
      "name": "ERC721NonexistentToken",
      "type": "error"
    },
    {
      "anonymous": false,
      "inputs": [
        {
          "indexed": true,
          "internalType": "address",
          "name": "owner",
          "type": "address"
        },
        {
          "indexed": true,
          "internalType": "address",
          "name": "approved",
          "type": "address"
        },
        {
          "indexed": true,
          "internalType": "uint256",
          "name": "tokenId",
          "type": "uint256"
        }
      ],
      "name": "Approval",
      "type": "event"
    },
    {
      "anonymous": false,
      "inputs": [
        {
          "indexed": true,
          "internalType": "address",
          "name": "owner",
          "type": "address"
        },
        {
          "indexed": true,
          "internalType": "address",
          "name": "operator",
          "type": "address"
        },
        {
          "indexed": false,
          "internalType": "bool",
          "name": "approved",
          "type": "bool"
        }
      ],
      "name": "ApprovalForAll",
      "type": "event"
    },
    {
      "anonymous": false,
      "inputs": [
        {
          "indexed": true,
          "internalType": "address",
          "name": "from",
          "type": "address"
        },
        {
          "indexed": true,
          "internalType": "address",
          "name": "to",
          "type": "address"
        },
        {
          "indexed": true,
          "internalType": "uint256",
          "name": "tokenId",
          "type": "uint256"
        }
      ],
      "name": "Transfer",
      "type": "event"
    },
    {
      "inputs": [
        {
          "internalType": "address",
          "name": "to",
          "type": "address"
        },
        {
          "internalType": "uint256",
          "name": "tokenId",
          "type": "uint256"
        }
      ],
      "name": "approve",
      "outputs": [],
      "stateMutability": "nonpayable",
      "type": "function"
    },
    {
      "inputs": [
        {
          "internalType": "address",
          "name": "owner",
          "type": "address"
        }
      ],
      "name": "balanceOf",
      "outputs": [
        {
          "internalType": "uint256",
          "name": "",
          "type": "uint256"
        }
      ],
      "stateMutability": "view",
      "type": "function"
    },
    {
      "inputs": [
        {
          "internalType": "uint256",
          "name": "tokenId",
          "type": "uint256"
        }
      ],
      "name": "getApproved",
      "outputs": [
        {
          "internalType": "address",
          "name": "",
          "type": "address"
        }
      ],
      "stateMutability": "view",
      "type": "function"
    },
    {
      "inputs": [
        {
          "internalType": "address",
          "name": "owner",
          "type": "address"
        },
        {
          "internalType": "address",
          "name": "operator",
          "type": "address"
        }
      ],
      "name": "isApprovedForAll",
      "outputs": [
        {
          "internalType": "bool",
          "name": "",
          "type": "bool"
        }
      ],
      "stateMutability": "view",
      "type": "function"
    },
    {
      "inputs": [
        {
          "internalType": "address",
          "name": "to",
          "type": "address"
        },
        {
          "internalType": "uint256",
          "name": "id",
          "type": "uint256"
        }
      ],
      "name": "mint",
      "outputs": [],
      "stateMutability": "nonpayable",
      "type": "function"
    },
    {
      "inputs": [],
      "name": "name",
      "outputs": [
        {
          "internalType": "string",
          "name": "",
          "type": "string"
        }
      ],
      "stateMutability": "view",
      "type": "function"
    },
    {
      "inputs": [
        {
          "internalType": "uint256",
          "name": "tokenId",
          "type": "uint256"
        }
      ],
      "name": "ownerOf",
      "outputs": [
        {
          "internalType": "address",
          "name": "",
          "type": "address"
        }
      ],
      "stateMutability": "view",
      "type": "function"
    },
    {
      "inputs": [
        {
          "internalType": "address",
          "name": "from",
          "type": "address"
        },
        {
          "internalType": "address",
          "name": "to",
          "type": "address"
        },
        {
          "internalType": "uint256",
          "name": "tokenId",
          "type": "uint256"
        }
      ],
      "name": "safeTransferFrom",
      "outputs": [],
      "stateMutability": "nonpayable",
      "type": "function"
    },
    {
      "inputs": [
        {
          "internalType": "address",
          "name": "from",
          "type": "address"
        },
        {
          "internalType": "address",
          "name": "to",
          "type": "address"
        },
        {
          "internalType": "uint256",
          "name": "tokenId",
          "type": "uint256"
        },
        {
          "internalType": "bytes",
          "name": "data",
          "type": "bytes"
        }
      ],
      "name": "safeTransferFrom",
      "outputs": [],
      "stateMutability": "nonpayable",
      "type": "function"
    },
    {
      "inputs": [
        {
          "internalType": "address",
          "name": "operator",
          "type": "address"
        },
        {
          "internalType": "bool",
          "name": "approved",
          "type": "bool"
        }
      ],
      "name": "setApprovalForAll",
      "outputs": [],
      "stateMutability": "nonpayable",
      "type": "function"
    },
    {
      "inputs": [
        {
          "internalType": "bytes4",
          "name": "interfaceId",
          "type": "bytes4"
        }
      ],
      "name": "supportsInterface",
      "outputs": [
        {
          "internalType": "bool",
          "name": "",
          "type": "bool"
        }
      ],
      "stateMutability": "view",
      "type": "function"
    },
    {
      "inputs": [],
      "name": "symbol",
      "outputs": [
        {
          "internalType": "string",
          "name": "",
          "type": "string"
        }
      ],
      "stateMutability": "view",
      "type": "function"
    },
    {
      "inputs": [
        {
          "internalType": "uint256",
          "name": "tokenId",
          "type": "uint256"
        }
      ],
      "name": "tokenURI",
      "outputs": [
        {
          "internalType": "string",
          "name": "",
          "type": "string"
        }
      ],
      "stateMutability": "view",
      "type": "function"
    },
    {
      "inputs": [
        {
          "internalType": "address",
          "name": "from",
          "type": "address"
        },
        {
          "internalType": "address",
          "name": "to",
          "type": "address"
        },
        {
          "internalType": "uint256",
          "name": "tokenId",
          "type": "uint256"
        }
      ],
      "name": "transferFrom",
      "outputs": [],
      "stateMutability": "nonpayable",
      "type": "function"
    }
  ],
  "bytecode": "0x608060405234801561000f575f5ffd5b50604051612278380380612278833981810160405281019061003191906101a8565b8181815f9081610041919061042e565b508060019081610051919061042e565b50505050506104fd565b5f604051905090565b5f5ffd5b5f5ffd5b5f5ffd5b5f5ffd5b5f601f19601f8301169050919050565b7f4e487b71000000000000000000000000000000000000000000000000000000005f52604160045260245ffd5b6100ba82610074565b810181811067ffffffffffffffff821117156100d9576100d8610084565b5b80604052505050565b5f6100eb61005b565b90506100f782826100b1565b919050565b5f67ffffffffffffffff82111561011657610115610084565b5b61011f82610074565b9050602081019050919050565b8281835e5f83830152505050565b5f61014c610147846100fc565b6100e2565b90508281526020810184848401111561016857610167610070565b5b61017384828561012c565b509392505050565b5f82601f83011261018f5761018e61006c565b5b815161019f84826020860161013a565b91505092915050565b5f5f604083850312156101be576101bd610064565b5b5f83015167ffffffffffffffff8111156101db576101da610068565b5b6101e78582860161017b565b925050602083015167ffffffffffffffff81111561020857610207610068565b5b6102148582860161017b565b9150509250929050565b5f81519050919050565b7f4e487b71000000000000000000000000000000000000000000000000000000005f52602260045260245ffd5b5f600282049050600182168061026c57607f821691505b60208210810361027f5761027e610228565b5b50919050565b5f819050815f5260205f209050919050565b5f6020601f8301049050919050565b5f82821b905092915050565b5f600883026102e17fffffffffffffffffffffffffffffffffffffffffffffffffffffffffffffffff826102a6565b6102eb86836102a6565b95508019841693508086168417925050509392505050565b5f819050919050565b5f819050919050565b5f61032f61032a61032584610303565b61030c565b610303565b9050919050565b5f819050919050565b61034883610315565b61035c61035482610336565b8484546102b2565b825550505050565b5f5f905090565b610373610364565b61037e81848461033f565b505050565b5b818110156103a1576103965f8261036b565b600181019050610384565b5050565b601f8211156103e6576103b781610285565b6103c084610297565b810160208510156103cf578190505b6103e36103db85610297565b830182610383565b50505b505050565b5f82821c905092915050565b5f6104065f19846008026103eb565b1980831691505092915050565b5f61041e83836103f7565b9150826002028217905092915050565b6104378261021e565b67ffffffffffffffff8111156104505761044f610084565b5b61045a8254610255565b6104658282856103a5565b5f60209050601f831160018114610496575f8415610484578287015190505b61048e8582610413565b8655506104f5565b601f1984166104a486610285565b5f5b828110156104cb578489015182556001820191506020850194506020810190506104a6565b868310156104e857848901516104e4601f8916826103f7565b8355505b6001600288020188555050505b505050505050565b611d6e8061050a5f395ff3fe608060405234801561000f575f5ffd5b50600436106100e8575f3560e01c80636352211e1161008a578063a22cb46511610064578063a22cb46514610258578063b88d4fde14610274578063c87b56dd14610290578063e985e9c5146102c0576100e8565b80636352211e146101da57806370a082311461020a57806395d89b411461023a576100e8565b8063095ea7b3116100c6578063095ea7b31461016a57806323b872dd1461018657806340c10f19146101a257806342842e0e146101be576100e8565b806301ffc9a7146100ec57806306fdde031461011c578063081812fc1461013a575b5f5ffd5b61010660048036038101906101019190611619565b6102f0565b604051610113919061165e565b60405180910390f35b6101246103d1565b60405161013191906116e7565b60405180910390f35b610154600480360381019061014f919061173a565b610460565b60405161016191906117a4565b60405180910390f35b610184600480360381019061017f91906117e7565b61047b565b005b6101a0600480360381019061019b9190611825565b610491565b005b6101bc60048036038101906101b791906117e7565b610590565b005b6101d860048036038101906101d39190611825565b61059e565b005b6101f460048036038101906101ef919061173a565b6105bd565b60405161020191906117a4565b60405180910390f35b610224600480360381019061021f9190611875565b6105ce565b60405161023191906118af565b60405180910390f35b610242610684565b60405161024f91906116e7565b60405180910390f35b610272600480360381019061026d91906118f2565b610714565b005b61028e60048036038101906102899190611a5c565b61072a565b005b6102aa60048036038101906102a5919061173a565b61074f565b6040516102b791906116e7565b60405180910390f35b6102da60048036038101906102d59190611adc565b6107b5565b6040516102e7919061165e565b60405180910390f35b5f7f80ac58cd000000000000000000000000000000000000000000000000000000007bffffffffffffffffffffffffffffffffffffffffffffffffffffffff1916827bffffffffffffffffffffffffffffffffffffffffffffffffffffffff191614806103ba57507f5b5e139f000000000000000000000000000000000000000000000000000000007bffffffffffffffffffffffffffffffffffffffffffffffffffffffff1916827bffffffffffffffffffffffffffffffffffffffffffffffffffffffff1916145b806103ca57506103c982610843565b5b9050919050565b60605f80546103df90611b47565b80601f016020809104026020016040519081016040528092919081815260200182805461040b90611b47565b80156104565780601f1061042d57610100808354040283529160200191610456565b820191905f5260205f20905b81548152906001019060200180831161043957829003601f168201915b5050505050905090565b5f61046a826108ac565b5061047482610932565b9050919050565b61048d828261048861096b565b610972565b5050565b5f73ffffffffffffffffffffffffffffffffffffffff168273ffffffffffffffffffffffffffffffffffffffff1603610501575f6040517f64a0ae920000000000000000000000000000000000000000000000000000000081526004016104f891906117a4565b60405180910390fd5b5f610514838361050f61096b565b610984565b90508373ffffffffffffffffffffffffffffffffffffffff168173ffffffffffffffffffffffffffffffffffffffff161461058a578382826040517f64283d7b00000000000000000000000000000000000000000000000000000000815260040161058193929190611b77565b60405180910390fd5b50505050565b61059a8282610b8f565b5050565b6105b883838360405180602001604052805f81525061072a565b505050565b5f6105c7826108ac565b9050919050565b5f5f73ffffffffffffffffffffffffffffffffffffffff168273ffffffffffffffffffffffffffffffffffffffff160361063f575f6040517f89c62b6400000000000000000000000000000000000000000000000000000000815260040161063691906117a4565b60405180910390fd5b60035f8373ffffffffffffffffffffffffffffffffffffffff1673ffffffffffffffffffffffffffffffffffffffff1681526020019081526020015f20549050919050565b60606001805461069390611b47565b80601f01602080910402602001604051908101604052809291908181526020018280546106bf90611b47565b801561070a5780601f106106e15761010080835404028352916020019161070a565b820191905f5260205f20905b8154815290600101906020018083116106ed57829003601f168201915b5050505050905090565b61072661071f61096b565b8383610c82565b5050565b610735848484610491565b61074961074061096b565b85858585610e5b565b50505050565b606061075a826108ac565b505f610764611007565b90505f8151116107825760405180602001604052805f8152506107ad565b8061078c8461101d565b60405160200161079d929190611be6565b6040516020818303038152906040525b915050919050565b5f60055f8473ffffffffffffffffffffffffffffffffffffffff1673ffffffffffffffffffffffffffffffffffffffff1681526020019081526020015f205f8373ffffffffffffffffffffffffffffffffffffffff1673ffffffffffffffffffffffffffffffffffffffff1681526020019081526020015f205f9054906101000a900460ff16905092915050565b5f7f01ffc9a7000000000000000000000000000000000000000000000000000000007bffffffffffffffffffffffffffffffffffffffffffffffffffffffff1916827bffffffffffffffffffffffffffffffffffffffffffffffffffffffff1916149050919050565b5f5f6108b7836110e7565b90505f73ffffffffffffffffffffffffffffffffffffffff168173ffffffffffffffffffffffffffffffffffffffff160361092957826040517f7e27328900000000000000000000000000000000000000000000000000000000815260040161092091906118af565b60405180910390fd5b80915050919050565b5f60045f8381526020019081526020015f205f9054906101000a900473ffffffffffffffffffffffffffffffffffffffff169050919050565b5f33905090565b61097f8383836001611120565b505050565b5f5f61098f846110e7565b90505f73ffffffffffffffffffffffffffffffffffffffff168373ffffffffffffffffffffffffffffffffffffffff16146109d0576109cf8184866112df565b5b5f73ffffffffffffffffffffffffffffffffffffffff168173ffffffffffffffffffffffffffffffffffffffff1614610a5b57610a0f5f855f5f611120565b600160035f8373ffffffffffffffffffffffffffffffffffffffff1673ffffffffffffffffffffffffffffffffffffffff1681526020019081526020015f205f82825403925050819055505b5f73ffffffffffffffffffffffffffffffffffffffff168573ffffffffffffffffffffffffffffffffffffffff1614610ada57600160035f8773ffffffffffffffffffffffffffffffffffffffff1673ffffffffffffffffffffffffffffffffffffffff1681526020019081526020015f205f82825401925050819055505b8460025f8681526020019081526020015f205f6101000a81548173ffffffffffffffffffffffffffffffffffffffff021916908373ffffffffffffffffffffffffffffffffffffffff160217905550838573ffffffffffffffffffffffffffffffffffffffff168273ffffffffffffffffffffffffffffffffffffffff167fddf252ad1be2c89b69c2b068fc378daa952ba7f163c4a11628f55a4df523b3ef60405160405180910390a4809150509392505050565b5f73ffffffffffffffffffffffffffffffffffffffff168273ffffffffffffffffffffffffffffffffffffffff1603610bff575f6040517f64a0ae92000000000000000000000000000000000000000000000000000000008152600401610bf691906117a4565b60405180910390fd5b5f610c0b83835f610984565b90505f73ffffffffffffffffffffffffffffffffffffffff168173ffffffffffffffffffffffffffffffffffffffff1614610c7d575f6040517f73c6ac6e000000000000000000000000000000000000000000000000000000008152600401610c7491906117a4565b60405180910390fd5b505050565b5f73ffffffffffffffffffffffffffffffffffffffff168373ffffffffffffffffffffffffffffffffffffffff1603610cf2575f6040517fa9fbf51f000000000000000000000000000000000000000000000000000000008152600401610ce991906117a4565b60405180910390fd5b5f73ffffffffffffffffffffffffffffffffffffffff168273ffffffffffffffffffffffffffffffffffffffff1603610d6257816040517f5b08ba18000000000000000000000000000000000000000000000000000000008152600401610d5991906117a4565b60405180910390fd5b8060055f8573ffffffffffffffffffffffffffffffffffffffff1673ffffffffffffffffffffffffffffffffffffffff1681526020019081526020015f205f8473ffffffffffffffffffffffffffffffffffffffff1673ffffffffffffffffffffffffffffffffffffffff1681526020019081526020015f205f6101000a81548160ff0219169083151502179055508173ffffffffffffffffffffffffffffffffffffffff168373ffffffffffffffffffffffffffffffffffffffff167f17307eab39ab6107e8899845ad3d59bd9653f200f220920489ca2b5937696c3183604051610e4e919061165e565b60405180910390a3505050565b5f8373ffffffffffffffffffffffffffffffffffffffff163b1115611000578273ffffffffffffffffffffffffffffffffffffffff1663150b7a02868685856040518563ffffffff1660e01b8152600401610eb99493929190611c5b565b6020604051808303815f875af1925050508015610ef457506040513d601f19601f82011682018060405250810190610ef19190611cb9565b60015b610f75573d805f8114610f22576040519150601f19603f3d011682016040523d82523d5f602084013e610f27565b606091505b505f815103610f6d57836040517f64a0ae92000000000000000000000000000000000000000000000000000000008152600401610f6491906117a4565b60405180910390fd5b805160208201fd5b63150b7a0260e01b7bffffffffffffffffffffffffffffffffffffffffffffffffffffffff1916817bffffffffffffffffffffffffffffffffffffffffffffffffffffffff191614610ffe57836040517f64a0ae92000000000000000000000000000000000000000000000000000000008152600401610ff591906117a4565b60405180910390fd5b505b5050505050565b606060405180602001604052805f815250905090565b60605f600161102b846113a2565b0190505f8167ffffffffffffffff81111561104957611048611938565b5b6040519080825280601f01601f19166020018201604052801561107b5781602001600182028036833780820191505090505b5090505f82602083010190505b6001156110dc578080600190039150507f3031323334353637383961626364656600000000000000000000000000000000600a86061a8153600a85816110d1576110d0611ce4565b5b0494505f8503611088575b819350505050919050565b5f60025f8381526020019081526020015f205f9054906101000a900473ffffffffffffffffffffffffffffffffffffffff169050919050565b808061115857505f73ffffffffffffffffffffffffffffffffffffffff168273ffffffffffffffffffffffffffffffffffffffff1614155b1561128a575f611167846108ac565b90505f73ffffffffffffffffffffffffffffffffffffffff168373ffffffffffffffffffffffffffffffffffffffff16141580156111d157508273ffffffffffffffffffffffffffffffffffffffff168173ffffffffffffffffffffffffffffffffffffffff1614155b80156111e457506111e281846107b5565b155b1561122657826040517fa9fbf51f00000000000000000000000000000000000000000000000000000000815260040161121d91906117a4565b60405180910390fd5b811561128857838573ffffffffffffffffffffffffffffffffffffffff168273ffffffffffffffffffffffffffffffffffffffff167f8c5be1e5ebec7d5bd14f71427d1e84f3dd0314c0f7b2291e5b200ac8c7c3b92560405160405180910390a45b505b8360045f8581526020019081526020015f205f6101000a81548173ffffffffffffffffffffffffffffffffffffffff021916908373ffffffffffffffffffffffffffffffffffffffff16021790555050505050565b6112ea8383836114f3565b61139d575f73ffffffffffffffffffffffffffffffffffffffff168373ffffffffffffffffffffffffffffffffffffffff160361135e57806040517f7e27328900000000000000000000000000000000000000000000000000000000815260040161135591906118af565b60405180910390fd5b81816040517f177e802f000000000000000000000000000000000000000000000000000000008152600401611394929190611d11565b60405180910390fd5b505050565b5f5f5f90507a184f03e93ff9f4daa797ed6e38ed64bf6a1f01000000000000000083106113fe577a184f03e93ff9f4daa797ed6e38ed64bf6a1f01000000000000000083816113f4576113f3611ce4565b5b0492506040810190505b6d04ee2d6d415b85acef8100000000831061143b576d04ee2d6d415b85acef8100000000838161143157611430611ce4565b5b0492506020810190505b662386f26fc10000831061146a57662386f26fc1000083816114605761145f611ce4565b5b0492506010810190505b6305f5e1008310611493576305f5e100838161148957611488611ce4565b5b0492506008810190505b61271083106114b85761271083816114ae576114ad611ce4565b5b0492506004810190505b606483106114db57606483816114d1576114d0611ce4565b5b0492506002810190505b600a83106114ea576001810190505b80915050919050565b5f5f73ffffffffffffffffffffffffffffffffffffffff168373ffffffffffffffffffffffffffffffffffffffff16141580156115aa57508273ffffffffffffffffffffffffffffffffffffffff168473ffffffffffffffffffffffffffffffffffffffff16148061156b575061156a84846107b5565b5b806115a957508273ffffffffffffffffffffffffffffffffffffffff1661159183610932565b73ffffffffffffffffffffffffffffffffffffffff16145b5b90509392505050565b5f604051905090565b5f5ffd5b5f5ffd5b5f7fffffffff0000000000000000000000000000000000000000000000000000000082169050919050565b6115f8816115c4565b8114611602575f5ffd5b50565b5f81359050611613816115ef565b92915050565b5f6020828403121561162e5761162d6115bc565b5b5f61163b84828501611605565b91505092915050565b5f8115159050919050565b61165881611644565b82525050565b5f6020820190506116715f83018461164f565b92915050565b5f81519050919050565b5f82825260208201905092915050565b8281835e5f83830152505050565b5f601f19601f8301169050919050565b5f6116b982611677565b6116c38185611681565b93506116d3818560208601611691565b6116dc8161169f565b840191505092915050565b5f6020820190508181035f8301526116ff81846116af565b905092915050565b5f819050919050565b61171981611707565b8114611723575f5ffd5b50565b5f8135905061173481611710565b92915050565b5f6020828403121561174f5761174e6115bc565b5b5f61175c84828501611726565b91505092915050565b5f73ffffffffffffffffffffffffffffffffffffffff82169050919050565b5f61178e82611765565b9050919050565b61179e81611784565b82525050565b5f6020820190506117b75f830184611795565b92915050565b6117c681611784565b81146117d0575f5ffd5b50565b5f813590506117e1816117bd565b92915050565b5f5f604083850312156117fd576117fc6115bc565b5b5f61180a858286016117d3565b925050602061181b85828601611726565b9150509250929050565b5f5f5f6060848603121561183c5761183b6115bc565b5b5f611849868287016117d3565b935050602061185a868287016117d3565b925050604061186b86828701611726565b9150509250925092565b5f6020828403121561188a576118896115bc565b5b5f611897848285016117d3565b91505092915050565b6118a981611707565b82525050565b5f6020820190506118c25f8301846118a0565b92915050565b6118d181611644565b81146118db575f5ffd5b50565b5f813590506118ec816118c8565b92915050565b5f5f60408385031215611908576119076115bc565b5b5f611915858286016117d3565b9250506020611926858286016118de565b9150509250929050565b5f5ffd5b5f5ffd5b7f4e487b71000000000000000000000000000000000000000000000000000000005f52604160045260245ffd5b61196e8261169f565b810181811067ffffffffffffffff8211171561198d5761198c611938565b5b80604052505050565b5f61199f6115b3565b90506119ab8282611965565b919050565b5f67ffffffffffffffff8211156119ca576119c9611938565b5b6119d38261169f565b9050602081019050919050565b828183375f83830152505050565b5f611a006119fb846119b0565b611996565b905082815260208101848484011115611a1c57611a1b611934565b5b611a278482856119e0565b509392505050565b5f82601f830112611a4357611a42611930565b5b8135611a538482602086016119ee565b91505092915050565b5f5f5f5f60808587031215611a7457611a736115bc565b5b5f611a81878288016117d3565b9450506020611a92878288016117d3565b9350506040611aa387828801611726565b925050606085013567ffffffffffffffff811115611ac457611ac36115c0565b5b611ad087828801611a2f565b91505092959194509250565b5f5f60408385031215611af257611af16115bc565b5b5f611aff858286016117d3565b9250506020611b10858286016117d3565b9150509250929050565b7f4e487b71000000000000000000000000000000000000000000000000000000005f52602260045260245ffd5b5f6002820490506001821680611b5e57607f821691505b602082108103611b7157611b70611b1a565b5b50919050565b5f606082019050611b8a5f830186611795565b611b9760208301856118a0565b611ba46040830184611795565b949350505050565b5f81905092915050565b5f611bc082611677565b611bca8185611bac565b9350611bda818560208601611691565b80840191505092915050565b5f611bf18285611bb6565b9150611bfd8284611bb6565b91508190509392505050565b5f81519050919050565b5f82825260208201905092915050565b5f611c2d82611c09565b611c378185611c13565b9350611c47818560208601611691565b611c508161169f565b840191505092915050565b5f608082019050611c6e5f830187611795565b611c7b6020830186611795565b611c8860408301856118a0565b8181036060830152611c9a8184611c23565b905095945050505050565b5f81519050611cb3816115ef565b92915050565b5f60208284031215611cce57611ccd6115bc565b5b5f611cdb84828501611ca5565b91505092915050565b7f4e487b71000000000000000000000000000000000000000000000000000000005f52601260045260245ffd5b5f604082019050611d245f830185611795565b611d3160208301846118a0565b939250505056fea264697066735822122043d92f4324ced092380f4fe196740ffa9b491bfd3d8d440986b9e8c98f66826964736f6c634300081c0033",
  "linkReferences": {},
  "deployedLinkReferences": {},
  "immutableReferences": {},
  "inputSourceName": "project/contracts/MetaNFT.sol",
  "buildInfoId": "solc-0_8_28-10d6c566c3654ecec8b5a184f58c673011ae3403"
}