{
  "_format": "hh3-artifact-1",
  "contractName": "MetaNFTAuctionV2",
  "sourceName": "contracts/MetaNFTAuctionV2.sol",
  "abi": [
    {
      "inputs": [],
      "name": "InvalidInitialization",
      "type": "error"
    },
    {
      "inputs": [],
      "name": "NotInitializing",
      "type": "error"
    },
    {
      "anonymous": false,
      "inputs": [
        {
          "indexed": true,
          "internalType": "address",
          "name": "sender",
          "type": "address"
        },
        {
          "indexed": false,
          "internalType": "uint256",
          "name": "amount",
          "type": "uint256"
        }
      ],
      "name": "Bid",
      "type": "event"
    },
    {
      "anonymous": false,
      "inputs": [
        {
          "indexed": true,
          "internalType": "uint256",
          "name": "auctionId",
          "type": "uint256"
        }
      ],
      "name": "EndBid",
      "type": "event"
    },
    {
      "anonymous": false,
      "inputs": [
        {
          "indexed": false,
          "internalType": "uint64",
          "name": "version",
          "type": "uint64"
        }
      ],
      "name": "Initialized",
      "type": "event"
    },
    {
      "anonymous": false,
      "inputs": [
        {
          "indexed": false,
          "internalType": "uint256",
          "name": "startingBid",
          "type": "uint256"
        }
      ],
      "name": "StartBid",
      "type": "event"
    },
    {
      "inputs": [],
      "name": "auctionId",
      "outputs": [
        {
          "internalType": "uint256",
          "name": "",
          "type": "uint256"
        }
      ],
      "stateMutability": "view",
      "type": "function"
    },
    {
      "inputs": [
        {
          "internalType": "uint256",
          "name": "",
          "type": "uint256"
        }
      ],
      "name": "auctions",
      "outputs": [
        {
          "internalType": "contract IERC721",
          "name": "nft",
          "type": "address"
        },
        {
          "internalType": "uint256",
          "name": "nftId",
          "type": "uint256"
        },
        {
          "internalType": "address payable",
          "name": "seller",
          "type": "address"
        },
        {
          "internalType": "uint256",
          "name": "startingTime",
          "type": "uint256"
        },
        {
          "internalType": "address",
          "name": "highestBidder",
          "type": "address"
        },
        {
          "internalType": "uint256",
          "name": "startingPriceInDollar",
          "type": "uint256"
        },
        {
          "internalType": "uint256",
          "name": "duration",
          "type": "uint256"
        },
        {
          "internalType": "contract IERC20",
          "name": "paymentToken",
          "type": "address"
        },
        {
          "internalType": "uint256",
          "name": "highestBid",
          "type": "uint256"
        },
        {
          "internalType": "uint256",
          "name": "highestBidInDollar",
          "type": "uint256"
        },
        {
          "internalType": "address",
          "name": "highestBidToken",
          "type": "address"
        }
      ],
      "stateMutability": "view",
      "type": "function"
    },
    {
      "inputs": [
        {
          "internalType": "uint256",
          "name": "auctionId_",
          "type": "uint256"
        },
        {
          "internalType": "uint256",
          "name": "amount",
          "type": "uint256"
        }
      ],
      "name": "bid",
      "outputs": [],
      "stateMutability": "payable",
      "type": "function"
    },
    {
      "inputs": [
        {
          "internalType": "uint256",
          "name": "auctionId_",
          "type": "uint256"
        }
      ],
      "name": "end",
      "outputs": [],
      "stateMutability": "nonpayable",
      "type": "function"
    },
    {
      "inputs": [
        {
          "internalType": "address",
          "name": "token",
          "type": "address"
        }
      ],
      "name": "getPriceInDollar",
      "outputs": [
        {
          "internalType": "uint256",
          "name": "",
          "type": "uint256"
        }
      ],
      "stateMutability": "view",
      "type": "function"
    },
    {
      "inputs": [],
      "name": "getVersion",
      "outputs": [
        {
          "internalType": "string",
          "name": "",
          "type": "string"
        }
      ],
      "stateMutability": "pure",
      "type": "function"
    },
    {
      "inputs": [
        {
          "internalType": "address",
          "name": "admin_",
          "type": "address"
        }
      ],
      "name": "initialize",
      "outputs": [],
      "stateMutability": "nonpayable",
      "type": "function"
    },
    {
      "inputs": [
        {
          "internalType": "uint256",
          "name": "auctionId_",
          "type": "uint256"
        }
      ],
      "name": "isEnded",
      "outputs": [
        {
          "internalType": "bool",
          "name": "",
          "type": "bool"
        }
      ],
      "stateMutability": "view",
      "type": "function"
    },
    {
      "inputs": [],
      "name": "newFeature",
      "outputs": [
        {
          "internalType": "string",
          "name": "",
          "type": "string"
        }
      ],
      "stateMutability": "pure",
      "type": "function"
    },
    {
      "inputs": [
        {
          "internalType": "address",
          "name": "token",
          "type": "address"
        },
        {
          "internalType": "address",
          "name": "oracle",
          "type": "address"
        }
      ],
      "name": "setTokenOracle",
      "outputs": [],
      "stateMutability": "nonpayable",
      "type": "function"
    },
    {
      "inputs": [
        {
          "internalType": "uint256",
          "name": "nftId",
          "type": "uint256"
        },
        {
          "internalType": "address",
          "name": "nft",
          "type": "address"
        },
        {
          "internalType": "uint256",
          "name": "startingPriceInDollar",
          "type": "uint256"
        },
        {
          "internalType": "uint256",
          "name": "duration",
          "type": "uint256"
        },
        {
          "internalType": "address",
          "name": "paymentToken",
          "type": "address"
        }
      ],
      "name": "start",
      "outputs": [],
      "stateMutability": "nonpayable",
      "type": "function"
    },
    {
      "inputs": [
        {
          "internalType": "address",
          "name": "",
          "type": "address"
        }
      ],
      "name": "tokenToOracle",
      "outputs": [
        {
          "internalType": "address",
          "name": "",
          "type": "address"
        }
      ],
      "stateMutability": "view",
      "type": "function"
    }
  ],
  "bytecode": "0x6080604052348015600e575f5ffd5b5060156019565b60c9565b7ff0c57e16840df040f15088dc2f81fe391c3923bec73e23a9662efc9c229c6a00805468010000000000000000900460ff161560685760405163f92ee8a960e01b815260040160405180910390fd5b80546001600160401b039081161460c65780546001600160401b0319166001600160401b0390811782556040519081527fc7f505b2f371ae2175ee4913f4499e1f2633a7b5936321eed1cdaeb6115181d29060200160405180910390a15b50565b611317806100d65f395ff3fe6080604052600436106100a5575f3560e01c8063571a26a011610062578063571a26a0146101ba578063598647f8146102a2578063764467cc146102b55780639820c733146102d4578063b66f7a8b14610320578063c4d66de81461034f575f5ffd5b80630ad24528146100a95780630d8e6e2c146100ca57806310782f8f14610114578063274f0207146101375780633ca75c201461017c57806341462bb01461019b575b5f5ffd5b3480156100b4575f5ffd5b506100c86100c3366004610fc7565b61036e565b005b3480156100d5575f5ffd5b5060408051808201909152601081526f26b2ba30a7232a20bab1ba34b7b72b1960811b60208201525b60405161010b9190610fde565b60405180910390f35b34801561011f575f5ffd5b5061012960035481565b60405190815260200161010b565b348015610142575f5ffd5b5060408051808201909152601b81527f746869732069732061206e6577206665617475726520696e205632000000000060208201526100fe565b348015610187575f5ffd5b506100c861019636600461102e565b610585565b3480156101a6575f5ffd5b506101296101b536600461107a565b6107bf565b3480156101c5575f5ffd5b5061023d6101d4366004610fc7565b600260208190525f918252604090912080546001820154928201546003830154600484015460058501546006860154600787015460088801546009890154600a909901546001600160a01b039889169a999789169896979587169694959394928316939192168b565b604080516001600160a01b039c8d168152602081019b909b52988b16988a01989098526060890196909652938816608088015260a087019290925260c0860152851660e08501526101008401526101208301529091166101408201526101600161010b565b6100c86102b0366004611093565b61088d565b3480156102c0575f5ffd5b506100c86102cf3660046110b3565b610d2b565b3480156102df575f5ffd5b506103086102ee36600461107a565b60016020525f90815260409020546001600160a01b031681565b6040516001600160a01b03909116815260200161010b565b34801561032b575f5ffd5b5061033f61033a366004610fc7565b610de4565b604051901515815260200161010b565b34801561035a575f5ffd5b506100c861036936600461107a565b610e1e565b5f81815260026020526040902061038482610de4565b6103c15760405162461bcd60e51b81526020600482015260096024820152681b9bdd08195b99195960ba1b60448201526064015b60405180910390fd5b60048101546001600160a01b03166104055760405162461bcd60e51b81526020600482015260076024820152666e6f206269647360c81b60448201526064016103b8565b805460048083015460018401546040516323b872dd60e01b815230938101939093526001600160a01b0391821660248401526044830152909116906323b872dd906064015f604051808303815f87803b158015610460575f5ffd5b505af1158015610472573d5f5f3e3d5ffd5b5050505060088101541561055757600a8101546001600160a01b03166104d557600281015460088201546040516001600160a01b039092169181156108fc0291905f818181858888f193505050501580156104cf573d5f5f3e3d5ffd5b50610557565b600a8101546002820154600883015460405163a9059cbb60e01b81526001600160a01b039283166004820152602481019190915291169063a9059cbb906044016020604051808303815f875af1158015610531573d5f5f3e3d5ffd5b505050506040513d601f19601f8201168201806040525081019061055591906110e4565b505b60405182907f49f8c3bdcd0eb514e0cc6e15c20ea38221feede47b929c3ea387bf7ec5ed09cf905f90a25050565b6001600160a01b0384166105c95760405162461bcd60e51b815260206004820152600b60248201526a1a5b9d985b1a59081b999d60aa1b60448201526064016103b8565b601e82101561060d5760405162461bcd60e51b815260206004820152601060248201526f34b73b30b634b210323ab930ba34b7b760811b60448201526064016103b8565b6001600160a01b03811661065b5760405162461bcd60e51b815260206004820152601560248201527434b73b30b634b2103830bcb6b2b73a103a37b5b2b760591b60448201526064016103b8565b600380545f90815260026020819052604090912080546001600160a01b03199081166001600160a01b038916178255600182018990559181018054339316831790554292810192909255906106b4856305f5e100611117565b6005820155600681018490556007810180546001600160a01b038581166001600160a01b0319928316179092555f6008840181905560048085018054841690556009850191909155600a840180549092169091556040516323b872dd60e01b81528483169181019190915230602482015260448101899052908716906323b872dd906064015f604051808303815f87803b158015610750575f5ffd5b505af1158015610762573d5f5f3e3d5ffd5b505060038054925090505f6107768361112e565b91905055507fb5949404365a99702891e7d343a17849cef9b8b7bdb7773922e333f46de188a76003546040516107ae91815260200190565b60405180910390a150505050505050565b6001600160a01b038082165f9081526001602052604081205490918291168061081b5760405162461bcd60e51b815260206004820152600e60248201526d1bdc9858db19481b9bdd081cd95d60921b60448201526064016103b8565b8091505f826001600160a01b031663feaf968c6040518163ffffffff1660e01b815260040160a060405180830381865afa15801561085b573d5f5f3e3d5ffd5b505050506040513d601f19601f8201168201806040525081019061087f919061115f565b509198975050505050505050565b5f82815260026020526040902060038101546108d95760405162461bcd60e51b815260206004820152600b60248201526a1b9bdd081cdd185c9d195960aa1b60448201526064016103b8565b6108e283610de4565b156109175760405162461bcd60e51b8152602060048201526005602482015264195b99195960da1b60448201526064016103b8565b5f3415801590610982573484146109625760405162461bcd60e51b815260206004820152600f60248201526e0c2dadeeadce840dad2e6dac2e8c6d608b1b60448201526064016103b8565b5f61096c5f6107bf565b905061097a34601283610f6e565b925050610ae3565b5f84116109c25760405162461bcd60e51b815260206004820152600e60248201526d1a5b9d985b1a5908185b5bdd5b9d60921b60448201526064016103b8565b60078301545f906109db906001600160a01b03166107bf565b90505f846007015f9054906101000a90046001600160a01b03166001600160a01b031663313ce5676040518163ffffffff1660e01b8152600401602060405180830381865afa158015610a30573d5f5f3e3d5ffd5b505050506040513d601f19601f82011682018060405250810190610a5491906111a1565b9050610a64868260ff1684610f6e565b60078601546040516323b872dd60e01b8152336004820152306024820152604481018990529195506001600160a01b0316906323b872dd906064016020604051808303815f875af1158015610abb573d5f5f3e3d5ffd5b505050506040513d601f19601f82011682018060405250810190610adf91906110e4565b5050505b81836005015410610b2e5760405162461bcd60e51b8152602060048201526015602482015274696e76616c6964207374617274696e67507269636560581b60448201526064016103b8565b81836009015410610b765760405162461bcd60e51b81526020600482015260126024820152711a5b9d985b1a59081a1a59da195cdd109a5960721b60448201526064016103b8565b60048301546001600160a01b031615801590610b9f575060048301546001600160a01b03163314155b15610c825760088301548015610c8057600a8401546001600160a01b0316610c005760048401546040516001600160a01b039091169082156108fc029083905f818181858888f19350505050158015610bfa573d5f5f3e3d5ffd5b50610c80565b600784015460048086015460405163a9059cbb60e01b81526001600160a01b0391821692810192909252602482018490529091169063a9059cbb906044016020604051808303815f875af1158015610c5a573d5f5f3e3d5ffd5b505050506040513d601f19601f82011682018060405250810190610c7e91906110e4565b505b505b8015610ca557346008840155600a830180546001600160a01b0319169055610cd3565b600883018490556007830154600a840180546001600160a01b0319166001600160a01b039092169190911790555b6004830180546001600160a01b03191633908117909155600984018390556040518381527fe684a55f31b79eca403df938249029212a5925ec6be8012e099b45bc1019e5d29060200160405180910390a25050505050565b5f546001600160a01b03163314610d705760405162461bcd60e51b81526020600482015260096024820152683737ba1030b236b4b760b91b60448201526064016103b8565b6001600160a01b038116610db75760405162461bcd60e51b815260206004820152600e60248201526d696e76616c6964206f7261636c6560901b60448201526064016103b8565b6001600160a01b039182165f90815260016020526040902080546001600160a01b03191691909216179055565b5f818152600260205260408120600381015415801590610e17575080600601548160030154610e1391906111c1565b4210155b9392505050565b5f610e27610f9d565b805490915060ff600160401b820416159067ffffffffffffffff165f81158015610e4e5750825b90505f8267ffffffffffffffff166001148015610e6a5750303b155b905081158015610e78575080155b15610e965760405163f92ee8a960e01b815260040160405180910390fd5b845467ffffffffffffffff191660011785558315610ec057845460ff60401b1916600160401b1785555b6001600160a01b038616610f065760405162461bcd60e51b815260206004820152600d60248201526c34b73b30b634b21030b236b4b760991b60448201526064016103b8565b5f80546001600160a01b0319166001600160a01b0388161790558315610f6657845460ff60401b19168555604051600181527fc7f505b2f371ae2175ee4913f4499e1f2633a7b5936321eed1cdaeb6115181d29060200160405180910390a15b505050505050565b5f80610f7b84600a6112b7565b90505f81610f898588611117565b610f9391906112c2565b9695505050505050565b5f807ff0c57e16840df040f15088dc2f81fe391c3923bec73e23a9662efc9c229c6a005b92915050565b5f60208284031215610fd7575f5ffd5b5035919050565b602081525f82518060208401528060208501604085015e5f604082850101526040601f19601f83011684010191505092915050565b80356001600160a01b0381168114611029575f5ffd5b919050565b5f5f5f5f5f60a08688031215611042575f5ffd5b8535945061105260208701611013565b9350604086013592506060860135915061106e60808701611013565b90509295509295909350565b5f6020828403121561108a575f5ffd5b610e1782611013565b5f5f604083850312156110a4575f5ffd5b50508035926020909101359150565b5f5f604083850312156110c4575f5ffd5b6110cd83611013565b91506110db60208401611013565b90509250929050565b5f602082840312156110f4575f5ffd5b81518015158114610e17575f5ffd5b634e487b7160e01b5f52601160045260245ffd5b8082028115828204841417610fc157610fc1611103565b5f6001820161113f5761113f611103565b5060010190565b805169ffffffffffffffffffff81168114611029575f5ffd5b5f5f5f5f5f60a08688031215611173575f5ffd5b61117c86611146565b6020870151604088015160608901519297509095509350915061106e60808701611146565b5f602082840312156111b1575f5ffd5b815160ff81168114610e17575f5ffd5b80820180821115610fc157610fc1611103565b6001815b600184111561120f578085048111156111f3576111f3611103565b600184161561120157908102905b60019390931c9280026111d8565b935093915050565b5f8261122557506001610fc1565b8161123157505f610fc1565b816001811461124757600281146112515761126d565b6001915050610fc1565b60ff84111561126257611262611103565b50506001821b610fc1565b5060208310610133831016604e8410600b8410161715611290575081810a610fc1565b61129c5f1984846111d4565b805f19048211156112af576112af611103565b029392505050565b5f610e178383611217565b5f826112dc57634e487b7160e01b5f52601260045260245ffd5b50049056fea2646970667358221220795b993711a7be1c30e9ad3959c5c8cc32a127f78b1cf74bbafb9f7a2c9ee98564736f6c634300081c0033",
  "linkReferences": {},
  "deployedLinkReferences": {},
  "immutableReferences": {},
  "inputSourceName": "project/contracts/MetaNFTAuctionV2.sol",
  "buildInfoId": "solc-0_8_28-f80c5a3623a082a4152974d85518af208454bf0b"
}