{
  "_format": "hh3-artifact-1",
  "contractName": "MetaNFTAuction",
  "sourceName": "contracts/MetaNFTAuction.sol",
  "abi": [
    {
      "inputs": [],
      "stateMutability": "nonpayable",
      "type": "constructor"
    },
    {
      "inputs": [],
      "name": "InvalidInitialization",
      "type": "error"
    },
    {
      "inputs": [],
      "name": "NotInitializing",
      "type": "error"
    },
    {
      "anonymous": false,
      "inputs": [
        {
          "indexed": true,
          "internalType": "address",
          "name": "sender",
          "type": "address"
        },
        {
          "indexed": false,
          "internalType": "uint256",
          "name": "amount",
          "type": "uint256"
        }
      ],
      "name": "Bid",
      "type": "event"
    },
    {
      "anonymous": false,
      "inputs": [
        {
          "indexed": true,
          "internalType": "uint256",
          "name": "auctionId",
          "type": "uint256"
        }
      ],
      "name": "EndBid",
      "type": "event"
    },
    {
      "anonymous": false,
      "inputs": [
        {
          "indexed": false,
          "internalType": "uint64",
          "name": "version",
          "type": "uint64"
        }
      ],
      "name": "Initialized",
      "type": "event"
    },
    {
      "anonymous": false,
      "inputs": [
        {
          "indexed": false,
          "internalType": "uint256",
          "name": "startingBid",
          "type": "uint256"
        }
      ],
      "name": "StartBid",
      "type": "event"
    },
    {
      "inputs": [],
      "name": "auctionId",
      "outputs": [
        {
          "internalType": "uint256",
          "name": "",
          "type": "uint256"
        }
      ],
      "stateMutability": "view",
      "type": "function"
    },
    {
      "inputs": [
        {
          "internalType": "uint256",
          "name": "",
          "type": "uint256"
        }
      ],
      "name": "auctions",
      "outputs": [
        {
          "internalType": "contract IERC721",
          "name": "nft",
          "type": "address"
        },
        {
          "internalType": "uint256",
          "name": "nftId",
          "type": "uint256"
        },
        {
          "internalType": "address payable",
          "name": "seller",
          "type": "address"
        },
        {
          "internalType": "uint256",
          "name": "startingTime",
          "type": "uint256"
        },
        {
          "internalType": "address",
          "name": "highestBidder",
          "type": "address"
        },
        {
          "internalType": "uint256",
          "name": "startingPriceInDollar",
          "type": "uint256"
        },
        {
          "internalType": "uint256",
          "name": "duration",
          "type": "uint256"
        },
        {
          "internalType": "contract IERC20",
          "name": "paymentToken",
          "type": "address"
        },
        {
          "internalType": "uint256",
          "name": "highestBid",
          "type": "uint256"
        },
        {
          "internalType": "uint256",
          "name": "highestBidInDollar",
          "type": "uint256"
        },
        {
          "internalType": "address",
          "name": "highestBidToken",
          "type": "address"
        }
      ],
      "stateMutability": "view",
      "type": "function"
    },
    {
      "inputs": [
        {
          "internalType": "uint256",
          "name": "auctionId_",
          "type": "uint256"
        },
        {
          "internalType": "uint256",
          "name": "amount",
          "type": "uint256"
        }
      ],
      "name": "bid",
      "outputs": [],
      "stateMutability": "payable",
      "type": "function"
    },
    {
      "inputs": [
        {
          "internalType": "uint256",
          "name": "auctionId_",
          "type": "uint256"
        }
      ],
      "name": "end",
      "outputs": [],
      "stateMutability": "nonpayable",
      "type": "function"
    },
    {
      "inputs": [
        {
          "internalType": "address",
          "name": "token",
          "type": "address"
        }
      ],
      "name": "getPriceInDollar",
      "outputs": [
        {
          "internalType": "uint256",
          "name": "",
          "type": "uint256"
        }
      ],
      "stateMutability": "view",
      "type": "function"
    },
    {
      "inputs": [],
      "name": "getVersion",
      "outputs": [
        {
          "internalType": "string",
          "name": "",
          "type": "string"
        }
      ],
      "stateMutability": "pure",
      "type": "function"
    },
    {
      "inputs": [
        {
          "internalType": "address",
          "name": "admin_",
          "type": "address"
        }
      ],
      "name": "initialize",
      "outputs": [],
      "stateMutability": "nonpayable",
      "type": "function"
    },
    {
      "inputs": [
        {
          "internalType": "uint256",
          "name": "auctionId_",
          "type": "uint256"
        }
      ],
      "name": "isEnded",
      "outputs": [
        {
          "internalType": "bool",
          "name": "",
          "type": "bool"
        }
      ],
      "stateMutability": "view",
      "type": "function"
    },
    {
      "inputs": [
        {
          "internalType": "address",
          "name": "token",
          "type": "address"
        },
        {
          "internalType": "address",
          "name": "oracle",
          "type": "address"
        }
      ],
      "name": "setTokenOracle",
      "outputs": [],
      "stateMutability": "nonpayable",
      "type": "function"
    },
    {
      "inputs": [
        {
          "internalType": "uint256",
          "name": "nftId",
          "type": "uint256"
        },
        {
          "internalType": "address",
          "name": "nft",
          "type": "address"
        },
        {
          "internalType": "uint256",
          "name": "startingPriceInDollar",
          "type": "uint256"
        },
        {
          "internalType": "uint256",
          "name": "duration",
          "type": "uint256"
        },
        {
          "internalType": "address",
          "name": "paymentToken",
          "type": "address"
        }
      ],
      "name": "start",
      "outputs": [],
      "stateMutability": "nonpayable",
      "type": "function"
    },
    {
      "inputs": [
        {
          "internalType": "address",
          "name": "",
          "type": "address"
        }
      ],
      "name": "tokenToOracle",
      "outputs": [
        {
          "internalType": "address",
          "name": "",
          "type": "address"
        }
      ],
      "stateMutability": "view",
      "type": "function"
    }
  ],
  "bytecode": "0x6080604052348015600e575f5ffd5b5060156019565b60c9565b7ff0c57e16840df040f15088dc2f81fe391c3923bec73e23a9662efc9c229c6a00805468010000000000000000900460ff161560685760405163f92ee8a960e01b815260040160405180910390fd5b80546001600160401b039081161460c65780546001600160401b0319166001600160401b0390811782556040519081527fc7f505b2f371ae2175ee4913f4499e1f2633a7b5936321eed1cdaeb6115181d29060200160405180910390a15b50565b6112c4806100d65f395ff3fe60806040526004361061009a575f3560e01c8063571a26a011610062578063571a26a014610167578063598647f81461024f578063764467cc146102625780639820c73314610281578063b66f7a8b146102cd578063c4d66de8146102fc575f5ffd5b80630ad245281461009e5780630d8e6e2c146100bf57806310782f8f146101065780633ca75c201461012957806341462bb014610148575b5f5ffd5b3480156100a9575f5ffd5b506100bd6100b8366004610f74565b61031b565b005b3480156100ca575f5ffd5b50604080518082018252601081526f4d6574614e465441756374696f6e563160801b602082015290516100fd9190610f8b565b60405180910390f35b348015610111575f5ffd5b5061011b60035481565b6040519081526020016100fd565b348015610134575f5ffd5b506100bd610143366004610fdb565b610532565b348015610153575f5ffd5b5061011b610162366004611027565b61076c565b348015610172575f5ffd5b506101ea610181366004610f74565b600260208190525f918252604090912080546001820154928201546003830154600484015460058501546006860154600787015460088801546009890154600a909901546001600160a01b039889169a999789169896979587169694959394928316939192168b565b604080516001600160a01b039c8d168152602081019b909b52988b16988a01989098526060890196909652938816608088015260a087019290925260c0860152851660e0850152610100840152610120830152909116610140820152610160016100fd565b6100bd61025d366004611040565b61083a565b34801561026d575f5ffd5b506100bd61027c366004611060565b610cd8565b34801561028c575f5ffd5b506102b561029b366004611027565b60016020525f90815260409020546001600160a01b031681565b6040516001600160a01b0390911681526020016100fd565b3480156102d8575f5ffd5b506102ec6102e7366004610f74565b610d91565b60405190151581526020016100fd565b348015610307575f5ffd5b506100bd610316366004611027565b610dcb565b5f81815260026020526040902061033182610d91565b61036e5760405162461bcd60e51b81526020600482015260096024820152681b9bdd08195b99195960ba1b60448201526064015b60405180910390fd5b60048101546001600160a01b03166103b25760405162461bcd60e51b81526020600482015260076024820152666e6f206269647360c81b6044820152606401610365565b805460048083015460018401546040516323b872dd60e01b815230938101939093526001600160a01b0391821660248401526044830152909116906323b872dd906064015f604051808303815f87803b15801561040d575f5ffd5b505af115801561041f573d5f5f3e3d5ffd5b5050505060088101541561050457600a8101546001600160a01b031661048257600281015460088201546040516001600160a01b039092169181156108fc0291905f818181858888f1935050505015801561047c573d5f5f3e3d5ffd5b50610504565b600a8101546002820154600883015460405163a9059cbb60e01b81526001600160a01b039283166004820152602481019190915291169063a9059cbb906044016020604051808303815f875af11580156104de573d5f5f3e3d5ffd5b505050506040513d601f19601f820116820180604052508101906105029190611091565b505b60405182907f49f8c3bdcd0eb514e0cc6e15c20ea38221feede47b929c3ea387bf7ec5ed09cf905f90a25050565b6001600160a01b0384166105765760405162461bcd60e51b815260206004820152600b60248201526a1a5b9d985b1a59081b999d60aa1b6044820152606401610365565b601e8210156105ba5760405162461bcd60e51b815260206004820152601060248201526f34b73b30b634b210323ab930ba34b7b760811b6044820152606401610365565b6001600160a01b0381166106085760405162461bcd60e51b815260206004820152601560248201527434b73b30b634b2103830bcb6b2b73a103a37b5b2b760591b6044820152606401610365565b600380545f90815260026020819052604090912080546001600160a01b03199081166001600160a01b03891617825560018201899055918101805433931683179055429281019290925590610661856305f5e1006110c4565b6005820155600681018490556007810180546001600160a01b038581166001600160a01b0319928316179092555f6008840181905560048085018054841690556009850191909155600a840180549092169091556040516323b872dd60e01b81528483169181019190915230602482015260448101899052908716906323b872dd906064015f604051808303815f87803b1580156106fd575f5ffd5b505af115801561070f573d5f5f3e3d5ffd5b505060038054925090505f610723836110db565b91905055507fb5949404365a99702891e7d343a17849cef9b8b7bdb7773922e333f46de188a760035460405161075b91815260200190565b60405180910390a150505050505050565b6001600160a01b038082165f908152600160205260408120549091829116806107c85760405162461bcd60e51b815260206004820152600e60248201526d1bdc9858db19481b9bdd081cd95d60921b6044820152606401610365565b8091505f826001600160a01b031663feaf968c6040518163ffffffff1660e01b815260040160a060405180830381865afa158015610808573d5f5f3e3d5ffd5b505050506040513d601f19601f8201168201806040525081019061082c919061110c565b509198975050505050505050565b5f82815260026020526040902060038101546108865760405162461bcd60e51b815260206004820152600b60248201526a1b9bdd081cdd185c9d195960aa1b6044820152606401610365565b61088f83610d91565b156108c45760405162461bcd60e51b8152602060048201526005602482015264195b99195960da1b6044820152606401610365565b5f341580159061092f5734841461090f5760405162461bcd60e51b815260206004820152600f60248201526e0c2dadeeadce840dad2e6dac2e8c6d608b1b6044820152606401610365565b5f6109195f61076c565b905061092734601283610f1b565b925050610a90565b5f841161096f5760405162461bcd60e51b815260206004820152600e60248201526d1a5b9d985b1a5908185b5bdd5b9d60921b6044820152606401610365565b60078301545f90610988906001600160a01b031661076c565b90505f846007015f9054906101000a90046001600160a01b03166001600160a01b031663313ce5676040518163ffffffff1660e01b8152600401602060405180830381865afa1580156109dd573d5f5f3e3d5ffd5b505050506040513d601f19601f82011682018060405250810190610a01919061114e565b9050610a11868260ff1684610f1b565b60078601546040516323b872dd60e01b8152336004820152306024820152604481018990529195506001600160a01b0316906323b872dd906064016020604051808303815f875af1158015610a68573d5f5f3e3d5ffd5b505050506040513d601f19601f82011682018060405250810190610a8c9190611091565b5050505b81836005015410610adb5760405162461bcd60e51b8152602060048201526015602482015274696e76616c6964207374617274696e67507269636560581b6044820152606401610365565b81836009015410610b235760405162461bcd60e51b81526020600482015260126024820152711a5b9d985b1a59081a1a59da195cdd109a5960721b6044820152606401610365565b60048301546001600160a01b031615801590610b4c575060048301546001600160a01b03163314155b15610c2f5760088301548015610c2d57600a8401546001600160a01b0316610bad5760048401546040516001600160a01b039091169082156108fc029083905f818181858888f19350505050158015610ba7573d5f5f3e3d5ffd5b50610c2d565b600784015460048086015460405163a9059cbb60e01b81526001600160a01b0391821692810192909252602482018490529091169063a9059cbb906044016020604051808303815f875af1158015610c07573d5f5f3e3d5ffd5b505050506040513d601f19601f82011682018060405250810190610c2b9190611091565b505b505b8015610c5257346008840155600a830180546001600160a01b0319169055610c80565b600883018490556007830154600a840180546001600160a01b0319166001600160a01b039092169190911790555b6004830180546001600160a01b03191633908117909155600984018390556040518381527fe684a55f31b79eca403df938249029212a5925ec6be8012e099b45bc1019e5d29060200160405180910390a25050505050565b5f546001600160a01b03163314610d1d5760405162461bcd60e51b81526020600482015260096024820152683737ba1030b236b4b760b91b6044820152606401610365565b6001600160a01b038116610d645760405162461bcd60e51b815260206004820152600e60248201526d696e76616c6964206f7261636c6560901b6044820152606401610365565b6001600160a01b039182165f90815260016020526040902080546001600160a01b03191691909216179055565b5f818152600260205260408120600381015415801590610dc4575080600601548160030154610dc0919061116e565b4210155b9392505050565b5f610dd4610f4a565b805490915060ff600160401b820416159067ffffffffffffffff165f81158015610dfb5750825b90505f8267ffffffffffffffff166001148015610e175750303b155b905081158015610e25575080155b15610e435760405163f92ee8a960e01b815260040160405180910390fd5b845467ffffffffffffffff191660011785558315610e6d57845460ff60401b1916600160401b1785555b6001600160a01b038616610eb35760405162461bcd60e51b815260206004820152600d60248201526c34b73b30b634b21030b236b4b760991b6044820152606401610365565b5f80546001600160a01b0319166001600160a01b0388161790558315610f1357845460ff60401b19168555604051600181527fc7f505b2f371ae2175ee4913f4499e1f2633a7b5936321eed1cdaeb6115181d29060200160405180910390a15b505050505050565b5f80610f2884600a611264565b90505f81610f3685886110c4565b610f40919061126f565b9695505050505050565b5f807ff0c57e16840df040f15088dc2f81fe391c3923bec73e23a9662efc9c229c6a005b92915050565b5f60208284031215610f84575f5ffd5b5035919050565b602081525f82518060208401528060208501604085015e5f604082850101526040601f19601f83011684010191505092915050565b80356001600160a01b0381168114610fd6575f5ffd5b919050565b5f5f5f5f5f60a08688031215610fef575f5ffd5b85359450610fff60208701610fc0565b9350604086013592506060860135915061101b60808701610fc0565b90509295509295909350565b5f60208284031215611037575f5ffd5b610dc482610fc0565b5f5f60408385031215611051575f5ffd5b50508035926020909101359150565b5f5f60408385031215611071575f5ffd5b61107a83610fc0565b915061108860208401610fc0565b90509250929050565b5f602082840312156110a1575f5ffd5b81518015158114610dc4575f5ffd5b634e487b7160e01b5f52601160045260245ffd5b8082028115828204841417610f6e57610f6e6110b0565b5f600182016110ec576110ec6110b0565b5060010190565b805169ffffffffffffffffffff81168114610fd6575f5ffd5b5f5f5f5f5f60a08688031215611120575f5ffd5b611129866110f3565b6020870151604088015160608901519297509095509350915061101b608087016110f3565b5f6020828403121561115e575f5ffd5b815160ff81168114610dc4575f5ffd5b80820180821115610f6e57610f6e6110b0565b6001815b60018411156111bc578085048111156111a0576111a06110b0565b60018416156111ae57908102905b60019390931c928002611185565b935093915050565b5f826111d257506001610f6e565b816111de57505f610f6e565b81600181146111f457600281146111fe5761121a565b6001915050610f6e565b60ff84111561120f5761120f6110b0565b50506001821b610f6e565b5060208310610133831016604e8410600b841016171561123d575081810a610f6e565b6112495f198484611181565b805f190482111561125c5761125c6110b0565b029392505050565b5f610dc483836111c4565b5f8261128957634e487b7160e01b5f52601260045260245ffd5b50049056fea2646970667358221220f2ed192064bc172d2c5e181b23159be68d05a5006c8f28625f381668a806669c64736f6c634300081c0033",
  "linkReferences": {},
  "deployedLinkReferences": {},
  "immutableReferences": {},
  "inputSourceName": "project/contracts/MetaNFTAuction.sol",
  "buildInfoId": "solc-0_8_28-71e0c03f447923a58391d8160313c0afda23d21f"
}